{
  "address": "0xdC97423e9c6129640Fe72ca6909E8D032029C1e0",
  "abi": [
    {
      "inputs": [
        {
          "internalType": "address",
          "name": "_treasury",
          "type": "address"
        },
        {
          "internalType": "uint256",
          "name": "_transferFeeRate",
          "type": "uint256"
        }
      ],
      "stateMutability": "nonpayable",
      "type": "constructor"
    },
    {
      "anonymous": false,
      "inputs": [
        {
          "indexed": true,
          "internalType": "address",
          "name": "owner",
          "type": "address"
        },
        {
          "indexed": true,
          "internalType": "address",
          "name": "spender",
          "type": "address"
        },
        {
          "indexed": false,
          "internalType": "uint256",
          "name": "value",
          "type": "uint256"
        }
      ],
      "name": "Approval",
      "type": "event"
    },
    {
      "anonymous": false,
      "inputs": [
        {
          "indexed": true,
          "internalType": "address",
          "name": "account",
          "type": "address"
        }
      ],
      "name": "ExcludedFromFee",
      "type": "event"
    },
    {
      "anonymous": false,
      "inputs": [
        {
          "indexed": true,
          "internalType": "address",
          "name": "account",
          "type": "address"
        }
      ],
      "name": "IncludedForFee",
      "type": "event"
    },
    {
      "anonymous": false,
      "inputs": [
        {
          "indexed": true,
          "internalType": "address",
          "name": "previousOwner",
          "type": "address"
        },
        {
          "indexed": true,
          "internalType": "address",
          "name": "newOwner",
          "type": "address"
        }
      ],
      "name": "OwnershipTransferred",
      "type": "event"
    },
    {
      "anonymous": false,
      "inputs": [
        {
          "indexed": true,
          "internalType": "address",
          "name": "from",
          "type": "address"
        },
        {
          "indexed": true,
          "internalType": "address",
          "name": "to",
          "type": "address"
        },
        {
          "indexed": false,
          "internalType": "uint256",
          "name": "value",
          "type": "uint256"
        }
      ],
      "name": "Transfer",
      "type": "event"
    },
    {
      "anonymous": false,
      "inputs": [
        {
          "indexed": false,
          "internalType": "uint256",
          "name": "transferFeeRate",
          "type": "uint256"
        }
      ],
      "name": "TransferFeeRateUpdated",
      "type": "event"
    },
    {
      "anonymous": false,
      "inputs": [
        {
          "indexed": true,
          "internalType": "address",
          "name": "treasury",
          "type": "address"
        }
      ],
      "name": "TreasuryUpdated",
      "type": "event"
    },
    {
      "inputs": [
        {
          "internalType": "address",
          "name": "owner",
          "type": "address"
        },
        {
          "internalType": "address",
          "name": "spender",
          "type": "address"
        }
      ],
      "name": "allowance",
      "outputs": [
        {
          "internalType": "uint256",
          "name": "",
          "type": "uint256"
        }
      ],
      "stateMutability": "view",
      "type": "function"
    },
    {
      "inputs": [
        {
          "internalType": "address",
          "name": "spender",
          "type": "address"
        },
        {
          "internalType": "uint256",
          "name": "amount",
          "type": "uint256"
        }
      ],
      "name": "approve",
      "outputs": [
        {
          "internalType": "bool",
          "name": "",
          "type": "bool"
        }
      ],
      "stateMutability": "nonpayable",
      "type": "function"
    },
    {
      "inputs": [
        {
          "internalType": "address",
          "name": "account",
          "type": "address"
        }
      ],
      "name": "balanceOf",
      "outputs": [
        {
          "internalType": "uint256",
          "name": "",
          "type": "uint256"
        }
      ],
      "stateMutability": "view",
      "type": "function"
    },
    {
      "inputs": [],
      "name": "decimals",
      "outputs": [
        {
          "internalType": "uint8",
          "name": "",
          "type": "uint8"
        }
      ],
      "stateMutability": "view",
      "type": "function"
    },
    {
      "inputs": [
        {
          "internalType": "address",
          "name": "spender",
          "type": "address"
        },
        {
          "internalType": "uint256",
          "name": "subtractedValue",
          "type": "uint256"
        }
      ],
      "name": "decreaseAllowance",
      "outputs": [
        {
          "internalType": "bool",
          "name": "",
          "type": "bool"
        }
      ],
      "stateMutability": "nonpayable",
      "type": "function"
    },
    {
      "inputs": [
        {
          "internalType": "address",
          "name": "_account",
          "type": "address"
        }
      ],
      "name": "excludeFromFee",
      "outputs": [],
      "stateMutability": "nonpayable",
      "type": "function"
    },
    {
      "inputs": [
        {
          "internalType": "address",
          "name": "",
          "type": "address"
        }
      ],
      "name": "excludedFromFee",
      "outputs": [
        {
          "internalType": "bool",
          "name": "",
          "type": "bool"
        }
      ],
      "stateMutability": "view",
      "type": "function"
    },
    {
      "inputs": [
        {
          "internalType": "address",
          "name": "_account",
          "type": "address"
        }
      ],
      "name": "includeForFee",
      "outputs": [],
      "stateMutability": "nonpayable",
      "type": "function"
    },
    {
      "inputs": [
        {
          "internalType": "address",
          "name": "spender",
          "type": "address"
        },
        {
          "internalType": "uint256",
          "name": "addedValue",
          "type": "uint256"
        }
      ],
      "name": "increaseAllowance",
      "outputs": [
        {
          "internalType": "bool",
          "name": "",
          "type": "bool"
        }
      ],
      "stateMutability": "nonpayable",
      "type": "function"
    },
    {
      "inputs": [],
      "name": "name",
      "outputs": [
        {
          "internalType": "string",
          "name": "",
          "type": "string"
        }
      ],
      "stateMutability": "view",
      "type": "function"
    },
    {
      "inputs": [],
      "name": "owner",
      "outputs": [
        {
          "internalType": "address",
          "name": "",
          "type": "address"
        }
      ],
      "stateMutability": "view",
      "type": "function"
    },
    {
      "inputs": [],
      "name": "renounceOwnership",
      "outputs": [],
      "stateMutability": "nonpayable",
      "type": "function"
    },
    {
      "inputs": [
        {
          "internalType": "uint256",
          "name": "_transferFeeRate",
          "type": "uint256"
        }
      ],
      "name": "setTransferFeeRate",
      "outputs": [],
      "stateMutability": "nonpayable",
      "type": "function"
    },
    {
      "inputs": [
        {
          "internalType": "address",
          "name": "_treasury",
          "type": "address"
        }
      ],
      "name": "setTreasury",
      "outputs": [],
      "stateMutability": "nonpayable",
      "type": "function"
    },
    {
      "inputs": [],
      "name": "symbol",
      "outputs": [
        {
          "internalType": "string",
          "name": "",
          "type": "string"
        }
      ],
      "stateMutability": "view",
      "type": "function"
    },
    {
      "inputs": [],
      "name": "totalSupply",
      "outputs": [
        {
          "internalType": "uint256",
          "name": "",
          "type": "uint256"
        }
      ],
      "stateMutability": "view",
      "type": "function"
    },
    {
      "inputs": [
        {
          "internalType": "address",
          "name": "recipient",
          "type": "address"
        },
        {
          "internalType": "uint256",
          "name": "amount",
          "type": "uint256"
        }
      ],
      "name": "transfer",
      "outputs": [
        {
          "internalType": "bool",
          "name": "",
          "type": "bool"
        }
      ],
      "stateMutability": "nonpayable",
      "type": "function"
    },
    {
      "inputs": [],
      "name": "transferFeeRate",
      "outputs": [
        {
          "internalType": "uint256",
          "name": "",
          "type": "uint256"
        }
      ],
      "stateMutability": "view",
      "type": "function"
    },
    {
      "inputs": [
        {
          "internalType": "address",
          "name": "sender",
          "type": "address"
        },
        {
          "internalType": "address",
          "name": "recipient",
          "type": "address"
        },
        {
          "internalType": "uint256",
          "name": "amount",
          "type": "uint256"
        }
      ],
      "name": "transferFrom",
      "outputs": [
        {
          "internalType": "bool",
          "name": "",
          "type": "bool"
        }
      ],
      "stateMutability": "nonpayable",
      "type": "function"
    },
    {
      "inputs": [
        {
          "internalType": "address",
          "name": "newOwner",
          "type": "address"
        }
      ],
      "name": "transferOwnership",
      "outputs": [],
      "stateMutability": "nonpayable",
      "type": "function"
    },
    {
      "inputs": [],
      "name": "treasury",
      "outputs": [
        {
          "internalType": "address",
          "name": "",
          "type": "address"
        }
      ],
      "stateMutability": "view",
      "type": "function"
    }
  ],
  "transactionHash": "0x44726f06c88d4450d8032275592cc8278607591cdf8191d216831e5a4923cb9f",
  "args": [
    "0x7638Ae4db07cb6e00b8952b238062D6c19b7830c",
    100
  ],
  "solcInputHash": "358f7afcd99af2c26eafa15c7ac99d06",
  "bytecode": "0x60806040523480156200001157600080fd5b50604051620014d8380380620014d88339810160408190526200003491620003e8565b604080518082018252600981526823b0b6b2aa37b5b2b760b91b60208083019182528351808501909452600484526347414d4560e01b908401528151919291620000819160039162000342565b5080516200009790600490602084019062000342565b5050506000620000ac6200025960201b60201c565b600580546001600160a01b0319166001600160a01b038316908117909155604051919250906000907f8be0079c531659141344cd1fd0a4f28419497f9722a3daafe3b4186f6b6457e0908290a3506001600160a01b038216620001615760405162461bcd60e51b815260206004820152602260248201527f47414d45544f4b454e3a2074726561737572792063616e6e6f74206265207a65604482015261726f60f01b60648201526084015b60405180910390fd5b612710811115620001db5760405162461bcd60e51b815260206004820152603960248201527f47414d45544f4b454e3a207472616e736665722066656520726174652063616e60448201527f206e6f742062652067726561746572207468616e203130302500000000000000606482015260840162000158565b600780546001600160a01b0319166001600160a01b03841617905560068190556040518181527f1723c194c108df281b957a5141ed3ebce4571635c93643f26ae09f0b153b4a9e9060200160405180910390a160075462000251906001600160a01b03166a0d3c21bcecceda100000006200025d565b505062000484565b3390565b6001600160a01b038216620002b55760405162461bcd60e51b815260206004820152601f60248201527f45524332303a206d696e7420746f20746865207a65726f206164647265737300604482015260640162000158565b8060026000828254620002c9919062000422565b90915550506001600160a01b03821660009081526020819052604081208054839290620002f890849062000422565b90915550506040518181526001600160a01b038316906000907fddf252ad1be2c89b69c2b068fc378daa952ba7f163c4a11628f55a4df523b3ef9060200160405180910390a35050565b828054620003509062000447565b90600052602060002090601f016020900481019282620003745760008555620003bf565b82601f106200038f57805160ff1916838001178555620003bf565b82800160010185558215620003bf579182015b82811115620003bf578251825591602001919060010190620003a2565b50620003cd929150620003d1565b5090565b5b80821115620003cd5760008155600101620003d2565b60008060408385031215620003fb578182fd5b82516001600160a01b038116811462000412578283fd5b6020939093015192949293505050565b600082198211156200044257634e487b7160e01b81526011600452602481fd5b500190565b600181811c908216806200045c57607f821691505b602082108114156200047e57634e487b7160e01b600052602260045260246000fd5b50919050565b61104480620004946000396000f3fe608060405234801561001057600080fd5b50600436106101375760003560e01c806370a08231116100b8578063a457c2d71161007c578063a457c2d714610277578063a9059cbb1461028a578063c894e1e51461029d578063dd62ed3e146102b0578063f0f44260146102e9578063f2fde38b146102fc57610137565b806370a0823114610220578063715018a61461023357806385ecafd71461023b5780638da5cb5b1461025e57806395d89b411461026f57610137565b8063351bf518116100ff578063351bf518146101b157806339509351146101ba578063437823ec146101cd57806361d027b3146101e257806363d600a41461020d57610137565b806306fdde031461013c578063095ea7b31461015a57806318160ddd1461017d57806323b872dd1461018f578063313ce567146101a2575b600080fd5b61014461030f565b6040516101519190610ec7565b60405180910390f35b61016d610168366004610e86565b6103a1565b6040519015158152602001610151565b6002545b604051908152602001610151565b61016d61019d366004610e4b565b6103b7565b60405160128152602001610151565b61018160065481565b61016d6101c8366004610e86565b61046d565b6101e06101db366004610df8565b6104a4565b005b6007546101f5906001600160a01b031681565b6040516001600160a01b039091168152602001610151565b6101e061021b366004610df8565b610583565b61018161022e366004610df8565b61065e565b6101e061067d565b61016d610249366004610df8565b60086020526000908152604090205460ff1681565b6005546001600160a01b03166101f5565b6101446106f1565b61016d610285366004610e86565b610700565b61016d610298366004610e86565b61079b565b6101e06102ab366004610eaf565b6107a8565b6101816102be366004610e19565b6001600160a01b03918216600090815260016020908152604080832093909416825291909152205490565b6101e06102f7366004610df8565b610885565b6101e061030a366004610df8565b61095a565b60606003805461031e90610fbd565b80601f016020809104026020016040519081016040528092919081815260200182805461034a90610fbd565b80156103975780601f1061036c57610100808354040283529160200191610397565b820191906000526020600020905b81548152906001019060200180831161037a57829003601f168201915b5050505050905090565b60006103ae338484610a45565b50600192915050565b60006103c4848484610b69565b6001600160a01b03841660009081526001602090815260408083203384529091529020548281101561044e5760405162461bcd60e51b815260206004820152602860248201527f45524332303a207472616e7366657220616d6f756e74206578636565647320616044820152676c6c6f77616e636560c01b60648201526084015b60405180910390fd5b610462853361045d8685610fa6565b610a45565b506001949350505050565b3360008181526001602090815260408083206001600160a01b038716845290915281205490916103ae91859061045d908690610f4f565b6005546001600160a01b031633146104ce5760405162461bcd60e51b815260040161044590610f1a565b6001600160a01b03811660009081526008602052604090205460ff16156105375760405162461bcd60e51b815260206004820152601b60248201527f47414d45544f4b454e3a20616c7265616479206578636c7564656400000000006044820152606401610445565b6001600160a01b038116600081815260086020526040808220805460ff19166001179055517ff1d6512ec7550bf605a5a38910e48fb6a57938ed74a5afa01753fa023001005c9190a250565b6005546001600160a01b031633146105ad5760405162461bcd60e51b815260040161044590610f1a565b6001600160a01b03811660009081526008602052604090205460ff166106155760405162461bcd60e51b815260206004820152601760248201527f47414d45544f4b454e3a206e6f74206578636c756465640000000000000000006044820152606401610445565b6001600160a01b038116600081815260086020526040808220805460ff19169055517febb983a8dd46f5ac7e2815699e9913c826a74f5d8756e586fd5d6cb8a29f84699190a250565b6001600160a01b0381166000908152602081905260409020545b919050565b6005546001600160a01b031633146106a75760405162461bcd60e51b815260040161044590610f1a565b6005546040516000916001600160a01b0316907f8be0079c531659141344cd1fd0a4f28419497f9722a3daafe3b4186f6b6457e0908390a3600580546001600160a01b0319169055565b60606004805461031e90610fbd565b3360009081526001602090815260408083206001600160a01b0386168452909152812054828110156107825760405162461bcd60e51b815260206004820152602560248201527f45524332303a2064656372656173656420616c6c6f77616e63652062656c6f77604482015264207a65726f60d81b6064820152608401610445565b610791338561045d8685610fa6565b5060019392505050565b60006103ae338484610b69565b6005546001600160a01b031633146107d25760405162461bcd60e51b815260040161044590610f1a565b61271081111561084a5760405162461bcd60e51b815260206004820152603960248201527f47414d45544f4b454e3a207472616e736665722066656520726174652063616e60448201527f206e6f742062652067726561746572207468616e2031303025000000000000006064820152608401610445565b60068190556040518181527f1723c194c108df281b957a5141ed3ebce4571635c93643f26ae09f0b153b4a9e9060200160405180910390a150565b6005546001600160a01b031633146108af5760405162461bcd60e51b815260040161044590610f1a565b6001600160a01b0381166109105760405162461bcd60e51b815260206004820152602260248201527f47414d45544f4b454e3a2074726561737572792063616e6e6f74206265207a65604482015261726f60f01b6064820152608401610445565b600780546001600160a01b0319166001600160a01b0383169081179091556040517f7dae230f18360d76a040c81f050aa14eb9d6dc7901b20fc5d855e2a20fe814d190600090a250565b6005546001600160a01b031633146109845760405162461bcd60e51b815260040161044590610f1a565b6001600160a01b0381166109e95760405162461bcd60e51b815260206004820152602660248201527f4f776e61626c653a206e6577206f776e657220697320746865207a65726f206160448201526564647265737360d01b6064820152608401610445565b6005546040516001600160a01b038084169216907f8be0079c531659141344cd1fd0a4f28419497f9722a3daafe3b4186f6b6457e090600090a3600580546001600160a01b0319166001600160a01b0392909216919091179055565b6001600160a01b038316610aa75760405162461bcd60e51b8152602060048201526024808201527f45524332303a20617070726f76652066726f6d20746865207a65726f206164646044820152637265737360e01b6064820152608401610445565b6001600160a01b038216610b085760405162461bcd60e51b815260206004820152602260248201527f45524332303a20617070726f766520746f20746865207a65726f206164647265604482015261737360f01b6064820152608401610445565b6001600160a01b0383811660008181526001602090815260408083209487168084529482529182902085905590518481527f8c5be1e5ebec7d5bd14f71427d1e84f3dd0314c0f7b2291e5b200ac8c7c3b925910160405180910390a3505050565b6001600160a01b03831660009081526008602052604081205460ff1680610ba857506001600160a01b03831660009081526008602052604090205460ff165b610bcc5761271060065483610bbd9190610f87565b610bc79190610f67565b610bcf565b60005b90508015610bef57600754610bef9085906001600160a01b031683610c09565b610c038484610bfe8486610fa6565b610c09565b50505050565b6001600160a01b038316610c6d5760405162461bcd60e51b815260206004820152602560248201527f45524332303a207472616e736665722066726f6d20746865207a65726f206164604482015264647265737360d81b6064820152608401610445565b6001600160a01b038216610ccf5760405162461bcd60e51b815260206004820152602360248201527f45524332303a207472616e7366657220746f20746865207a65726f206164647260448201526265737360e81b6064820152608401610445565b6001600160a01b03831660009081526020819052604090205481811015610d475760405162461bcd60e51b815260206004820152602660248201527f45524332303a207472616e7366657220616d6f756e7420657863656564732062604482015265616c616e636560d01b6064820152608401610445565b610d518282610fa6565b6001600160a01b038086166000908152602081905260408082209390935590851681529081208054849290610d87908490610f4f565b92505081905550826001600160a01b0316846001600160a01b03167fddf252ad1be2c89b69c2b068fc378daa952ba7f163c4a11628f55a4df523b3ef84604051610dd391815260200190565b60405180910390a350505050565b80356001600160a01b038116811461067857600080fd5b600060208284031215610e09578081fd5b610e1282610de1565b9392505050565b60008060408385031215610e2b578081fd5b610e3483610de1565b9150610e4260208401610de1565b90509250929050565b600080600060608486031215610e5f578081fd5b610e6884610de1565b9250610e7660208501610de1565b9150604084013590509250925092565b60008060408385031215610e98578182fd5b610ea183610de1565b946020939093013593505050565b600060208284031215610ec0578081fd5b5035919050565b6000602080835283518082850152825b81811015610ef357858101830151858201604001528201610ed7565b81811115610f045783604083870101525b50601f01601f1916929092016040019392505050565b6020808252818101527f4f776e61626c653a2063616c6c6572206973206e6f7420746865206f776e6572604082015260600190565b60008219821115610f6257610f62610ff8565b500190565b600082610f8257634e487b7160e01b81526012600452602481fd5b500490565b6000816000190483118215151615610fa157610fa1610ff8565b500290565b600082821015610fb857610fb8610ff8565b500390565b600181811c90821680610fd157607f821691505b60208210811415610ff257634e487b7160e01b600052602260045260246000fd5b50919050565b634e487b7160e01b600052601160045260246000fdfea2646970667358221220967d1a9d93fe8fbad8d33afcc81a276f1685cd034ebea74ae3f08dffd899f0ab64736f6c63430008030033",
  "devdoc": {
    "kind": "dev",
    "methods": {
      "allowance(address,address)": {
        "details": "See {IERC20-allowance}."
      },
      "approve(address,uint256)": {
        "details": "See {IERC20-approve}. Requirements: - `spender` cannot be the zero address."
      },
      "balanceOf(address)": {
        "details": "See {IERC20-balanceOf}."
      },
      "decimals()": {
        "details": "Returns the number of decimals used to get its user representation. For example, if `decimals` equals `2`, a balance of `505` tokens should be displayed to a user as `5,05` (`505 / 10 ** 2`). Tokens usually opt for a value of 18, imitating the relationship between Ether and Wei. This is the value {ERC20} uses, unless this function is overridden; NOTE: This information is only used for _display_ purposes: it in no way affects any of the arithmetic of the contract, including {IERC20-balanceOf} and {IERC20-transfer}."
      },
      "decreaseAllowance(address,uint256)": {
        "details": "Atomically decreases the allowance granted to `spender` by the caller. This is an alternative to {approve} that can be used as a mitigation for problems described in {IERC20-approve}. Emits an {Approval} event indicating the updated allowance. Requirements: - `spender` cannot be the zero address. - `spender` must have allowance for the caller of at least `subtractedValue`."
      },
      "increaseAllowance(address,uint256)": {
        "details": "Atomically increases the allowance granted to `spender` by the caller. This is an alternative to {approve} that can be used as a mitigation for problems described in {IERC20-approve}. Emits an {Approval} event indicating the updated allowance. Requirements: - `spender` cannot be the zero address."
      },
      "name()": {
        "details": "Returns the name of the token."
      },
      "owner()": {
        "details": "Returns the address of the current owner."
      },
      "renounceOwnership()": {
        "details": "Leaves the contract without owner. It will not be possible to call `onlyOwner` functions anymore. Can only be called by the current owner. NOTE: Renouncing ownership will leave the contract without an owner, thereby removing any functionality that is only available to the owner."
      },
      "symbol()": {
        "details": "Returns the symbol of the token, usually a shorter version of the name."
      },
      "totalSupply()": {
        "details": "See {IERC20-totalSupply}."
      },
      "transfer(address,uint256)": {
        "details": "See {IERC20-transfer}. Requirements: - `recipient` cannot be the zero address. - the caller must have a balance of at least `amount`."
      },
      "transferFrom(address,address,uint256)": {
        "details": "See {IERC20-transferFrom}. Emits an {Approval} event indicating the updated allowance. This is not required by the EIP. See the note at the beginning of {ERC20}. Requirements: - `sender` and `recipient` cannot be the zero address. - `sender` must have a balance of at least `amount`. - the caller must have allowance for ``sender``'s tokens of at least `amount`."
      },
      "transferOwnership(address)": {
        "details": "Transfers ownership of the contract to a new account (`newOwner`). Can only be called by the current owner."
      }
    },
    "version": 1
  },
  "userdoc": {
    "kind": "user",
    "methods": {},
    "version": 1
  },
  "storageLayout": {
    "storage": [
      {
        "astId": 125,
        "contract": "contracts/GameToken.sol:GameToken",
        "label": "_balances",
        "offset": 0,
        "slot": "0",
        "type": "t_mapping(t_address,t_uint256)"
      },
      {
        "astId": 131,
        "contract": "contracts/GameToken.sol:GameToken",
        "label": "_allowances",
        "offset": 0,
        "slot": "1",
        "type": "t_mapping(t_address,t_mapping(t_address,t_uint256))"
      },
      {
        "astId": 133,
        "contract": "contracts/GameToken.sol:GameToken",
        "label": "_totalSupply",
        "offset": 0,
        "slot": "2",
        "type": "t_uint256"
      },
      {
        "astId": 135,
        "contract": "contracts/GameToken.sol:GameToken",
        "label": "_name",
        "offset": 0,
        "slot": "3",
        "type": "t_string_storage"
      },
      {
        "astId": 137,
        "contract": "contracts/GameToken.sol:GameToken",
        "label": "_symbol",
        "offset": 0,
        "slot": "4",
        "type": "t_string_storage"
      },
      {
        "astId": 7,
        "contract": "contracts/GameToken.sol:GameToken",
        "label": "_owner",
        "offset": 0,
        "slot": "5",
        "type": "t_address"
      },
      {
        "astId": 771,
        "contract": "contracts/GameToken.sol:GameToken",
        "label": "transferFeeRate",
        "offset": 0,
        "slot": "6",
        "type": "t_uint256"
      },
      {
        "astId": 773,
        "contract": "contracts/GameToken.sol:GameToken",
        "label": "treasury",
        "offset": 0,
        "slot": "7",
        "type": "t_address"
      },
      {
        "astId": 777,
        "contract": "contracts/GameToken.sol:GameToken",
        "label": "excludedFromFee",
        "offset": 0,
        "slot": "8",
        "type": "t_mapping(t_address,t_bool)"
      }
    ],
    "types": {
      "t_address": {
        "encoding": "inplace",
        "label": "address",
        "numberOfBytes": "20"
      },
      "t_bool": {
        "encoding": "inplace",
        "label": "bool",
        "numberOfBytes": "1"
      },
      "t_mapping(t_address,t_bool)": {
        "encoding": "mapping",
        "key": "t_address",
        "label": "mapping(address => bool)",
        "numberOfBytes": "32",
        "value": "t_bool"
      },
      "t_mapping(t_address,t_mapping(t_address,t_uint256))": {
        "encoding": "mapping",
        "key": "t_address",
        "label": "mapping(address => mapping(address => uint256))",
        "numberOfBytes": "32",
        "value": "t_mapping(t_address,t_uint256)"
      },
      "t_mapping(t_address,t_uint256)": {
        "encoding": "mapping",
        "key": "t_address",
        "label": "mapping(address => uint256)",
        "numberOfBytes": "32",
        "value": "t_uint256"
      },
      "t_string_storage": {
        "encoding": "bytes",
        "label": "string",
        "numberOfBytes": "32"
      },
      "t_uint256": {
        "encoding": "inplace",
        "label": "uint256",
        "numberOfBytes": "32"
      }
    }
  }
}